{
    "contractName": "Migrations",
    "abi": [
        {
            "inputs": [],
            "name": "OWNER",
            "outputs": [
                {
                    "internalType": "address",
                    "name": "",
                    "type": "address"
                }
            ],
            "stateMutability": "view",
            "type": "function"
        },
        {
            "inputs": [],
            "name": "lastCompletedMigration",
            "outputs": [
                {
                    "internalType": "uint256",
                    "name": "",
                    "type": "uint256"
                }
            ],
            "stateMutability": "view",
            "type": "function"
        },
        {
            "inputs": [
                {
                    "internalType": "uint256",
                    "name": "completed",
                    "type": "uint256"
                }
            ],
            "name": "setCompleted",
            "outputs": [],
            "stateMutability": "nonpayable",
            "type": "function"
        }
    ],
    "bytecode": "6080604052600080546001600160a01b0319163317905534801561002257600080fd5b50610168806100326000396000f3fe608060405234801561001057600080fd5b50600436106100415760003560e01c8063117803e314610046578063fbdbad3c14610076578063fdacd5761461008d575b600080fd5b600054610059906001600160a01b031681565b6040516001600160a01b0390911681526020015b60405180910390f35b61007f60015481565b60405190815260200161006d565b6100a061009b366004610119565b6100a2565b005b6000546001600160a01b031633146101145760405162461bcd60e51b815260206004820152602b60248201527f546869732066756e6374696f6e206973207265737472696374656420746f207460448201526a1a194818dbdb9d1c9858dd60aa1b606482015260840160405180910390fd5b600155565b60006020828403121561012b57600080fd5b503591905056fea26469706673582212208f87ae51cfbf930decf198e9127e2fdbd332b898297736e8c5d448adc2d992d064736f6c634300080d0033",
    "sourcePath": "/home/ryan/Workspace/SolidityTemplate/protocol/contracts/Migrations.sol",
    "compiler": {
        "name": "solc",
        "version": "0.8.13+commit.abaa5c0e"
    },
    "functionHashes": {
        "OWNER()": "117803e3",
        "lastCompletedMigration()": "fbdbad3c",
        "setCompleted(uint256)": "fdacd576"
    },
    "gasEstimates": {
        "creation": {
            "codeDepositCost": "72000",
            "executionCost": "24358",
            "totalCost": "96358"
        },
        "external": {
            "OWNER()": "2304",
            "lastCompletedMigration()": "2295",
            "setCompleted(uint256)": "24486"
        }
    }
}